:020000041008E2
:4000000000780408EB0208100D00000051030810510308105103081051030810000000000000000000000000000000004D0308104D030810000000004D0308104D030810DA
:400040004D0308104D0308104D0308104D0308104D0308104D0308104D0308104D0308104D0308104D0308104D0308104D0308104D0308104D0308104D0308104D03081000
:400080004D0308104D0308104D0308104D0308104D0308104D0308104D0308104D0308104D0308104D0308104D0308104D0308104D0308104D0308104D0308104D030810C0
:4000C0004D0308104D0308104D0308104D0308104D0308104D0308104D0308104D0308104D0308104D0308104D0308104D0308104D0308104D0308104D0308104D03081080
:400100004D0308104D0308104D0308104D0308104D0308104D0308104D0308104D0308104D0308104D0308104D0308104D0308104D0308104D0308104D0308104D0308103F
:400140004D0308104D0308104D0308104D0308104D0308104D0308104D0308104D0308104D0308104D0308104D0308104D0308104D0308104D0308104D0308104D030810FF
:400180004D0308104D0308104D0308104D0308104D0308104D0308104D0308104D0308104D0308104D0308104D0308104D0308104D0308104D0308104D0308104D030810BF
:4001C0004D0308104D0308104D0308104D0308104D0308104D0308104D0308104D0308104D0308104D0308104D0308104D0308104D0308104D0308104D0308104D0308107F
:400200004D0308104D0308104D0308104D0308104D0308104D0308104D0308104D0308104D0308104D0308104D0308104D0308104D0308104D0308104D0308104D0308103E
:400240004D0308104D0308104D0308104D0308104D0308104D0308104D0308104D0308104D0308104D0308104D0308104D0308104D0308104D0308104D0308104D030810FE
:400280004D0308104D0308104D03081010B5054C237833B9044B13B10448AFF300800123237010BDE449020800000000CC760910084B10B51BB108490848AFF300800848DB
:4002C000036803B910BD074B002BFBD0BDE81040184700BF00000000E8490208CC760910B0430208000000007047FFF7FDFF72B6104C114DAC4209DA21686268A368043B23
:40030000A2BFC858D050FAE70C34F3E70B490C4A00209142BCBF41F8040BFAE709480A490860BFF34F8F00F0EBFA00F0C5FA00F0ADF9FEE7D0760910E8760910E449020838
:4003400070D002080040020808ED00E0FEE7FEE700B504207146084202D0EFF3098001E0EFF30880043001F0E9F9FEE708B5104803F036FF002003F027FF6FF07F4003F075
:4003800027FF002003F062FF03F0E4FF022003F053FF5A22A021074804F0C6F9022003F04BFF6E22A021044804F0BEF908BD00BF9806091098E90810ACE9081008B50C48EE
:4003C00003F00EFF002003F0FFFE6FF07F4003F0FFFE002003F03AFF03F0BCFF022003F02BFF5A22A021034804F09EF908BD00BF98060910B8E9081008B5154803F0F0FEA4
:40040000002003F0E1FE6FF07F4003F0E1FE002003F01CFF03F09EFF022003F00DFF5A22A0210C4804F080F9022003F005FF8222A021094804F078F9022003F0FDFE07486A
:4004400003F0CEFEC822A021054804F06DF908BDE82C0910C4E90810D4E90810B8F00810DCE9081008B5154803F0BAFE002003F0ABFE6FF07F4003F0ABFE002003F0E6FE10
:4004800003F068FF022003F0D7FE5A22A0210C4804F04AF9022003F0CFFE8222A021094804F042F9022003F0C7FE074803F098FEC822A021054804F037F908BDE82C0910A9
:4004C000C4E90810F4E90810B8F00810DCE9081070B5002425461E4B1B6803EB83039A001C4B1A44536823B94FF47C711A4801F015F90021194801F095FF0544013442F251
:4005000010739C42E7D1B5FBF4F4154E214630460CF066F9134D2B68E11A0029B8BF494230460CF05DF92B68E41A84EAE473A3EBE473122B06DD14F1270F05DB272C05DDE3
:40054000002070BD002070BD002070BD012070BD2CCC02082CF00810FCE9081000001D411CEA08108C42020838B540223B4B5A604FF4FA7001F0AEF839480CF031F9394BC1
:40058000186842685368013B5360002B04DA41680CF03EF9C4B204E042681368591C11601C78214630480CF01BF9312CE7D12D4B186842685368013B5360002B04DA416887
:4005C0000CF026F9C4B204E042681368591C11601C78214624480CF003F9322C01D1012500E00025C82001F075F820480CF0F8F81C4B186842685368013B5360002B04DAE3
:4006000041680CF005F9C4B204E042681368591C11601C78214614480CF0E2F8312CE7D1104B186842685368013B5360002B04DA41680CF0EDF8C4B204E042681368591CBA
:4006400011601C78214608480CF0CAF8322C01D1012000E00020284038BD00BF8006324024EA08106C43020828EA081030EA081010B5FFF779FF0446FFF72AFF10B11CB136
:40068000012010BD002010BD002010BD10B562B603F090FE01F05AFF02F048FA01F012FF03F01CF802F0EEFF40221B4B9A60FFF75DFE002402F0EAF90028FBD101F05CFF62
:4006C000002002F073F878B1642001F003F8FFF775FEFFF7CDFF10B1FFF78EFE01E0FFF7C1FE40220C4B9A60012002F05FF870B1642000F0EFFF24B10222084B5A60002416
:4007000003E00222054B9A600124FFF72FFE02F03BF902F00BFACDE7800632408005324008B5012000F062FF08BD00BF704700BF5A4AD2F8803303F00F0303F1D00152F802
:40074000212012F0070202D0042A02D00FE0544911E003F1C002514951F8222002F01F02112A06D0132A04D04FF4FA4103E04D4901E04FF400418BBB484BD3F8902502F027
:400780000100D3F88825C2F30172D3F8883513F0405F07D0414BD3F88835C3F30173012B02D102E0012300E0002303B108B9032A46D13A48D0F88025C2F31103D0F884256F
:4007C000C2F30C02D0F88005C0F300600130B1FBF2F202FB03F2B2FBF0F131E0012B2FD12E4BD3F8402602F00100D3F80026C2F30172D3F8003613F0405F07D0274BD3F8EB
:400800000036C3F30173012B02D102E0012300E0002303B108B9032A12D12048D0F8002602F07F02D0F80036C3F30423D0F80006C0F3044002FB01F2B2FBF3F2B2FBF0F152
:40084000164BD3F88033C3F3011321FA03F216490A601648D0F89030C3F3072301330069000E0130B2FBF0F04860B2FBF3F38B60CB6003F5742202F23F220D48A0FB02029F
:40088000C2F387420A7403F2E7330A4AA2FB03239B094B61DB038B61704700BF0000264000127A0000366E01904202080000214083DE1B43D34D621008B50D4801F018F84E
:4008C000FFF734FFFFF734FF00221146042000F055FC084800F0E8FC074B1B6893F8513013B1064800F050FD00F016FB08BD00BF04ED0810004A020804CE020834EA081080
:4009000008B500F076FF074AD2F8883043F47003C2F88830BFF34F8FBFF36F8F00F06DFF08BD00BF00ED00E008B54FF40041034803F010F8024803F0D9FC08BD804B020886
:4009400084670910024A136801331360704700BF00CE0208014B1868704700BF00CE0208044B1B681844034B1B68C31A002BFADC704700BF00CE020810B52021002000F05C
:400980007DFF002409E0204600F0A8FF20B90849204600F095FF02E00134042CF3D9042C03D9A421034800F0B9FE00F03FFF10BD4509081068EA081008B5FFF7DDFF08BDA8
:4009C00038B500F065F9754C0425A560142003F0DBFE6560642003F0D7FEA560642003F0D3FE282000F09EF9112000F09BF9642003F0CAFE362000F095F9A02000F0A2F98D
:400A00003A2000F08FF9652000F09CF9B22000F089F90C2000F096F90C2000F093F9002000F090F9332000F08DF9332000F08AF9B72000F077F9352000F084F9BB2000F057
:400A400071F92B2000F07EF9C02000F06BF92C2000F078F9C22000F065F9012000F072F9FF2000F06FF9C32000F05CF9112000F069F9C42000F056F9202000F063F9C62016
:400A800000F050F90F2000F05DF9D02000F04AF9A42000F057F9A12000F054F9E02000F041F9D02000F04EF9002000F04BF9052000F048F90E2000F045F9152000F042F9AC
:400AC0000D2000F03FF9372000F03CF9432000F039F9472000F036F9092000F033F9152000F030F9122000F02DF9162000F02AF9192000F027F9E12000F014F9D02000F0CF
:400B000021F9002000F01EF9052000F01BF90D2000F018F90C2000F015F9062000F012F92D2000F00FF9442000F00CF9402000F009F90E2000F006F91C2000F003F9182065
:400B400000F000F9162000F0FDF8192000F0FAF82B2000F0E7F8002000F0F4F8002000F0F1F8002000F0EEF8EF2000F0EBF82A2000F0D8F8002000F0E5F8002000F0E2F88E
:400B8000012000F0DFF83F2000F0DCF80A2003F0FBFD292000F0C6F838BD00BF0006324030B5A1B000241B941C941D941E941F946822214601A80BF099F9234622461449CE
:400BC000144803F013FD05464FF4A072F021204605F09FFC4FF4A072F021204605F0B0FC06231D931BA9284604F0B7F90A4B01930A4B02930A4B04930A4B06930A4B089336
:400C00000A4B0B4A01A9284604F0C7F921B030BDC86E0910206F0910250D0810450D0810650D0810750D0810810D0810AD560810455A0810012904D108B5FFF7C1FE0020A8
:400C400008BD4FF0FF30704710B504462146034800F07EFE0028F9D010BD00BF00006640054BD3F80833C3F30803002BF8D0024BD3F84003704700BF000066400822034B41
:400C80001A70092203F580731A7070471012344008B5044B1B7823B9FFF7F0FF0122014B1A7008BD80CB020830B400240BE0084B1B7813F0010FFAD1064B18700D5D03F558
:400CC00080731D7001349442F1D330BC704700BF1416344010143440084B1B7813F0010FFAD140F00200064B1870044B1B7813F0020FFAD0034B1878704700BF141634408C
:400D00001014344010163440F8B507460E461546002404E03846FFF7DFFF30550134AC42F8D3F8BD054B1B7813F0010FFAD10022034B1A7003F580731870704714163440D3
:400D400010143440054B1B7813F0010FFAD10122034B1A7003F5807318707047141634401014344008B58AB201460120FFF79CFF08BD00BF08B50120FFF7AEFF08BD00BF44
:400D800008B58AB201460120FFF7BEFF08BD00BF1F4B98422DD00CD840282ED003D8E8B1102828D02FE0802829D0B0F5807F28D029E0184B984228D006D8B0F1204F0DD017
:400DC000154B984212D01EE0144B98420AD00133984209D0023B984215D101E0002070470F4870470F4870470F4870474FF4A0007047074870470D4870470D4870470D48F3
:400E00007047034870470C4870474FF4A400704706005200010000F0090000A0040000F0010052000200520003005200010050000200500005005200FF00520038B5124BD9
:400E40001B6893F83130012B04D840F2C3110F4800F064FC0C4B1D682A6AB5F8B03013442C46D5F8B420D358002B0BDB084B1868FFF78EFF6B6801229A6063689B68002B6C
:400E8000FBD138BD034838BD04CE020888EA081084CB0208020050001A4B186128B102230370FF23437000234380174B1B6893F850202AB300B583B0B3F93830ADF8003088
:400EC000002301931149684600F0CAFBBDF90030002B08DB590903F01F03012202FA03F30B4A42F82130084B1B6893F8513023B102220849012000F0F3FA03B05DF804FBEE
:400F0000704700BF84CB020804CE02082144020800E100E0D944020808B50248FFF7BCFF08BD00BF98CB02082DE9F04104460D46174698469DF81860072903D9D921354857
:400F400000F0ECFB37F00F0303D0DA21314800F0E5FBB8F1010F03D9DB212E4800F0DEFB36F01F0303D0DC212A4800F0D7FB22680123AB4022EA030308F0010808FA05F883
:400F800043EA08032360244B1B6893F87D100B59A8000F22824023EA020207F00F0303FA00F717430F51072D04D94FF422711B4800F0B4FB36F01F0304D040F28921174865
:400FC00000F0ACFB144B1B689A69A41AE4095B6924011919032D0DD81959ED001F22AA4021EA020206F01F0606FA05F515431D51BDE8F081043D4A68ED001F23AB4022EAF7
:40100000030306F01F0606FA05F51D434D60BDE8F08100BFC8EA081004CE020808EB081038B50B4B1B68D3F8B4301B58002B0DDA0D4604460B0C1B0423B140F2D5210548EC
:4010400000F06CFBA9B26160002038BD024838BD04CE020848EB081001008A0038B50368002B01DA002300E0094B73B90D460446C2600B0C1B0423B140F2BB21054800F002
:401080004DFBA9B2A160002038BD014838BD00BF01008A0048EB081038B504460D4619B99921084800F03AFB074B1B68D3F8B4301B59002B03DAE3682B60002038BD0348E3
:4010C00038BD00BF88EB081004CE020801008A00254B1B6893F8313083423AD900293AD00B6813F01F0F38D170B50D4604461E4B1B6893F83130984204D340F2C3111B48FF
:4011000000F00CFB184B1B68186AB3F8B03004FB0304174E34602A68D208002168680AF0E5FE00212046FFF77BFF346825B940F293310E4800F0F2FA2A4600212046FFF706
:401140008DFF60B900210A4B1868FFF769FF40B970BD084870470748704706487047064870BD054870BD00BF04CE020848EB08109CCB020803018A0001018A0010B50446C9
:401180001346B2B9A9B9124B1B6893F83130984204D340F2C3110F4800F0C0FA0C4B1B681A6AB3F8B03004FB03240B4B1C60002010BD43B149B1084A51609360111D20463F
:4011C000FFF786FF10BD054810BD044810BD00BF04CE020848EB08109CCB020803018A002DE9F0411B4B1B68DC68236883422CD90D464609A0EB4610012303FA00F819B958
:4012000000F0F7FA074600E00027124B18680368002B01DA002300E00F4B83B9626852F8263018EA030F05D023EA080342F82630002400E0094C0021FFF7F2FE00E0084C03
:4012400025B9384600F0D9FA00E0064C2046BDE8F08100BF9CCB020801008A00020188000301880004018A000B4B1B68DB681A6882420CD94109A0EB4110012202FA00F0C4
:401280005B6853F82130184203D004487047044870470448704700BF9CCB02080101880004018A0000018800024B1B680BB9014B18607047A8CB02082DE9F84304468846D2
:4012C00091461D46089F2C4B1B681BB9B5212B4800F024FA284B1B682C2000FB04F01C18EEB21E50C5F3072363602D0CA560244B1B6893F831309E4204D340F2C31121488E
:4013000000F00CFA1E4B1B68196AB3F8B02006FB02162661666893F832309E4204D340F2DF11184800F0FAF9154B1B681D6A803605EB46156561A668330C1B0423B14FF4A2
:40134000FF71104800F0EAF9330C1B0423B140F2FF110C4800F0E2F9B3B243EA0646AE60C4F81C90C4F820800023A36117B1B7F90030A381BDE8F883A8CB0208C8EB081034
:4013800004CE020848EB0810F0B58FB0044618B95221274800F0C2F9A369072B03D95621234800F0BBF9E36A1BB95821204800F0B5F9236B1BB959211D4800F0AFF907ADAD
:4013C00004F114060FCE0FC537682F6002AD26460FCE0FC533682B60164B1B68B3F93620079B1344ADF83030089B0D93A26AE16A0CAD00953B460A98FFF75EFF0021009119
:40140000069B0A460598FFF757FF216B284600F027F9BDF93030002B08DB590903F01F03012202FA03F3044A42F821300FB0F0BDC8EB081004CE020800E100E0F8B5064672
:401440000F461D4614461AB9FD211F4800F066F91E4B1B681BB9FE211B4800F05FF91B4B1B682C2101FB063001FB07314B68012202FA03F31B04466802FA06F60269EAB1FA
:401480008F69EFB91268002A01DA002200E0104AC2B92288134323600369DC6001238B614D620469330C1B0423B140F2BB21094800F034F9B2B2A2600020F8BD0648F8BDF3
:4014C0000648F8BD0548F8BDC8EB0810A8CB020801008A0048EB081004028A0007028A00F8B505460F4616460E4B1B6823B94FF4AF710D4800F012F90A4B1B682C2404FB6B
:401500000534236A23B94FF4B171074800F006F9E369B34204D9236A43F826700020F8BD0248F8BDA8CB0208C8EB08100A028A0070B582B000230193044620B940F2D111F3
:40154000284800F0EBF8236923B94FF4E971254800F0E4F8636923B940F2D311214800F0DDF8236A23B94FF4EA711E4800F0D6F86369DD682A0C20D012041A601B68206900
:40158000194B1B68D3F8B430C358002B15DA01A9FFF782FD60B9019803681E0CDBB2E269934206D2226A52F8233013B1984700E0002631462069FFF733FDADB275B163692C
:4015C000ADB21D601B68636A1BB198470023636202E0A36A03B198470023A36163691B6802B070BDC8EB081004CE020810B50446074B1B6823B940F2B111064800F08EF836
:40160000034B1B682C2000FB0430FFF791FF10BDA8CB0208C8EB081038B50D4B9A680D4B9A420FD10D46044621B940F237110A4800F074F804F11003064A52F8230042F8CA
:40164000235038BD1030054B53F8200038BD00BF00ED00E00040020808EC08100000081048B338B504460D464368072B03D93221134800F053F8B4F900306268002B08DB3C
:401680005201D2B203F1604303F5614383F8002305E003F00F035201D2B20A49CA540A4B9A680A4B9A4208D12946B4F90000FFF7B3FF002038BD06487047002038BD00BF3D
:4016C00008EC081014ED00E000ED00E0004002080100560010B5044605E0084B186800F07FF8A4F50044B4F5004FF6D8044B186800FB04F000F074F810BD00BFA842020824
:40170000A442020808B5034B1B7800FB03F000F067F808BDA042020801BEFEE738B50D46044C1822014620460BF0A6F8A5610020FFF7F2FF50490208FEE700BF08B50268FE
:40174000254BDA6142681A6282685A62C2689A620269DA6242691A6382695A63C2699A631E4A916AD963D16A1964516A5964516B9964926BDA64F1EE103A13F0900F27D0A8
:40178000026A154B1A65426A5A65826A9A65C26ADA65026B1A66426B5A66826B9A66C26BDA66026C1A67426C5A67826C9A67C26CDA67026DC3F88020426DC3F88420826DE6
:4017C000C3F88820C26DC3F88C20026EC3F89020FFF7B2FF08BD00BF5049020800ED00E00230800803D001300238FCD100BF00BF7047EFF3108072B6704780F3108870476D
:40180000084B1B6813F4803F07D17047064B53F8243003B19847013401E010B50024042CF4D910BD10E000E0E8CB0208044B1A6842F002021A601A6842F001021A6070473B
:4018400010E000E0042805D10A4A136843F0040313607047084B1B681A68D3F8A030000600F04070D050034A136823F004031360704700BF10E000E004CE020810B50C461C
:40188000002304E000210A4A42F823100133042BF8D9084A084BDA63FFF7D4FF24F07F44064B5C6000229A60FFF7C0FF10BD00BFE8CB0208011808100040020810E000E017
:4018C0000346042805D8044A52F8200042F8231070470020704700BFE8CB0208042803D8024B53F82000704700207047E8CB0208014B1860704700BF04CE020810B4D0F8BB
:40190000003303F00F03072B06D900230DE0D0F84043CC54013300E000239342F7D306E0D0F8404321F8134001339342F8D35DF8044B704710B51446D0F80833C3F308035E
:401940009A4200D31C462246FFF7D8FF204610BD036813F4006F01D0802200E04022D0F80832C3F30803934203D0C0F84012012070470020704700BF10B4D0F8003203F0C4
:401980000F03072B06D900230DE0CC5CC0F84042013300E000239342F7D306E031F81340C0F8404201339342F8D35DF8044B704710B51446036813F4006F01D0802200E09E
:4019C0004022D0F80832C3F30803D31AA34200D81C462246FFF7D0FF204610BD2DE9F84305460C46036813F4006F02D04FF0800801E04FF04008D5F8007207F00F07A26A2E
:401A0000012A19D9D4F82490E262561EB9F1000F00D026B940F273512548FFF77FFE324649462846FFF7C4FFA36A1B1AA362072F00D9400048446062D5F80832C3F3080339
:401A4000984533D0A36A012B30D10023A362072F02D8636A1E7801E0636A1E88FFF7C9FEC5F840624FF40073C5F8803FD5F8803FFFF7C3FED5F8883F23F4007222F001029A
:401A800042F4007623F4EE6323F0030323B140F22A410848FFF742FEC5F8886F236843F002032360236B0BB101209847BDE8F883BCED0810FCED08102DE9F04105460C46F8
:401AC000036813F4006F01D0802600E040267608A769D4F81C8017B1B8F1000F04D14FF499613148FFF71AFE424639462846FFF721FF236A03442362E3691B1AE36173BB62
:401B0000A368FBB1E3689E4201D8013E00E05E1E2B6813F4006F01D0802300E040239E4204D34FF420712148FFF7F8FDD5F8043323F0FF03F6B21E43C5F804630123C5F889
:401B4000C83F02E00023C5F8C83F636823F001036360236B33B304209847BDE8F081A169D5F8002302F00F02072A00D940000844A0619E4216D95C1E2B6813F4006F01D0AC
:401B8000802300E040239C4204D34FF420710748FFF7C4FDD5F8043323F0FF02E3B21343C5F80433BDE8F081BCED0810FCED0810002800F0A48170B50546002900F0A181F9
:401BC00016460C460B78022B03D93F21A248FFF7A5FD637B023BDBB2062B03D940219E48FFF79CFDA37B3BB1022B05D0032B03D041219948FFF792FD94F82130012B03D984
:401C000042219548FFF78AFD94F82830012B03D943219148FFF782FD2378012B06D86368083B082B94BF0023012307E0A37F2BB16368013B062B94BF002301231BB14521E0
:401C40008548FFF76BFDA368053B042B03D946218148FFF763FD6369FF2B03D947217E48FFF75CFDA369FF2B03D948217A48FFF755FDA37C6BB1237833B9A368092B05D1B2
:401C8000A37B2BB1012304E0012302E0012300E000231BB14A217048FFF740FD636B23F4366323F00D031BB14C216B48FFF736FDE36B23F4EE6323F003031BB14D21664866
:401CC000FFF72CFD2378022B01D1A37F13B16268013A00E00022237F13B14FF4803100E00021A368082B02D84FF4006300E000230B4302F00F02134343F000732B60226BBD
:401D00002B6813F4006F01D0802300E040239A4203D362215048FFF701FDA26B2B6813F4006F01D0802300E040239A4203D363214948FFF7F3FC626A2B6813F4006F01D003
:401D4000802300E040239A4203D364214248FFF7E5FC23781B0603F040732B64637F0BB1402200E00022A37C13B14FF4806300E000231343227C12B14FF4807200E00022F8
:401D80001343627C12B14FF4007200E000221A43E36A013B1B0403F470231343627B013A02F007021343A27B120102F030021343AB64237B13B14FF4807200E00022E37B77
:401DC00023B92378022B03D1012302E0012300E0002313B14FF4007300E000231A43A368013B03F00F031343C5F80033227DA3691B0403F47F031343C5F81033E26AD5F820
:401E0000003303F00F0303339A4201D3102A03D97A211148FFF782FCE37F23B12378012B03D0002302E0002300E0012313B14FF4807200E00022637B013B03F007031A439B
:401E4000A37B1B0103F0300313436B64237B2BB14FF4807203E000BF40EE08100022A368013B03F00F0313432278012A02D14FF4803200E000221343C5F8003294F83030C2
:401E8000C5F8043394F8203013B14FF0007200E0002294F82130012B02D14FF0807300E00023134394F82820012A02D14FF4803200E00022134394F8242013432B6594F813
:401EC0003830C5F80432636B23F4926323F002031B051B0DC5F8C83FE36B23F08C035B055B0DC5F8883F76B1002070603060B060F0603062F0623063044B736370BD044831
:401F00007047034870BD002070BD00BFEFCDAB000160AA000B694A69934202D34869181A7047CA694869101A184470472DE9F04107460D46036813F4006F02D04FF0800807
:401F400001E04FF040084FEA5808D7F80863C6F308062C6926E00134EB689C4200D100246B699C420FD12B6B0BB1082098476B699C4208D10023C7F8C83F0CB1013C13E01D
:401F8000EC68013C10E0D7F84023D7F8003303F00F03072B02D8AB681A5502E0AB6823F81420013E002ED6D12C61EC6829463846FFF7B0FF201A804519D908B1441E00E022
:401FC00000243B6813F4006F01D0802300E040239C4204D34FF420710648FFF79FFBD7F8040320F0FF03E0B21843C7F80403BDE8F08100BFFCED081038B504460D46D0F8C3
:40200000003E13F0080F35D0D0F8CC3F13F448730AD04A681A434A60C0F8C03FD0F8C03F0B6B0BB110209847D4F8CC3F13F4006F09D06B6843F400636B604FF40063C4F89C
:40204000C03FD4F8C03FD4F8CC3F13F0010F11D0EB6923B129462046FFF72EFD05E0AB681BB129462046FFF761FF0123C4F8C03FD4F8C03FD4F8003E13F0040F2ED0D4F82A
:402080008C3F13F4A0630AD02A681A432A60C4F8803FD4F8803F2B6B0BB120209847D4F88C3F13F0010F08D029462046FFF796FC0123C4F8803FD4F8803FD4F88C3F13F4DA
:4020C000007F0BD00022C4F8882F2B6823F001032B60EA622B6B0BB10220984738BD00BF2DE9F8430E46074618B93A217548FFF715FB1EB93B217348FFF710FB002F00F07A
:40210000DA80002E00F0DA8032686F4B13401BB14A216C48FFF702FB72686C4B13401BB14B216848FFF7FAFAB36813F0FC2F03D04C216448FFF7F2FAF36813F0FC2F03D01F
:402140004D216048FFF7EAFA337D032B03D94E215C48FFF7E3FAB369B3F5803F03D34F215848FFF7DBFAF36D072B03D950215548FFF7D4FA336EB3F5803F03D35121514872
:40218000FFF7CCFA736EB3F5803F03D352214D48FFF7C4FA736843F000437B60B3683B61F3687B613369BB61337D9B07FB61B3693B62336803F46068736803F004090024F7
:4021C00035E02546A31D06EB83035A68404B13401BB163213B48FFF7A1FAAB1D06EB8303596805F1200247F822105B6813F0012F0BD1B8F5606F08D1B9F1000F05D04FF4A3
:402200007842344B23F8152003E00022314B23F81520726F02F11C7303F58033520093FBF2F31BB22C4A42F825300134E4B20F2CC7D9F36DC7F81832F36DC7F81032336E8E
:40224000C7F82832336EC7F82032736EC7F83832736EC7F8303296F87030DBB1B36EB3F1804F03D382211748FFF758FAF36E23F44F0323F0FF031BB183211248FFF74EFA32
:402280006FF04043C7F80433B36EC7F80033F36EC7F84433D7F8003F3F2B02D0D7F8003F13B90B23C7F8003F336843F400133B600020BDE8F8830948BDE8F8830748BDE827
:4022C000F88300BF80EE08100811DF0001FE302088CA887E08CE020828CE02080100060038B50D46044618B9B5211748FFF716FA2CB30023236063604FF003122261626120
:40230000A361E361236206E003F12002002144F822100133DBB20F2BF6D90023C4F81832C4F82832C4F838325DB16FF04043C4F804330020C4F84003C4F8440338BD0348D1
:4023400038BD002038BD00BF80EE08100100060008B50368002B0ADBD0F8A032002BFBDB036843F0004303600220FFF7CBF908BD38B505460C46012904D940F271110648BC
:40238000FFF7CCF9012C04D16B6843F480336B6038BD01236B6238BD80EE081038B505460C460F2904D94FF415710848FFF7B6F90F2C07D8203455F8243013F0012F03D005
:4023C000002038BD002038BD012038BD80EE081038B505460C460F2904D940F222211048FFF79CF90F2C14D821462846FFF7D6FF80F0010010F0FF0F05D06B6813F0080F18
:4024000009D1002038BD6B6813F0040F05D1002038BD002038BD012038BD012038BD00BF80EE081070B506460D460F2904D94FF428710A48FFF772F90F2D05D805F1600379
:4024400056F82340A4B200E0002429463046FFF7BFFF08B120B270BD204670BD80EE081070B539B900240AE015F8010BFEF7ECFB013402E016460D460024B442F4DB2046B8
:4024800070BD00BF70B561B900240FE0FEF7E8FBC0B2287001340A2808D00D2806D0013502E016460D460024B442EFDB204670BD08B502490248FFF79FFD08BD68CE02088B
:4024C0000000664008B5114B1B785BB9104A11491148FFF76DFB11491148FFF7C1F801220A4B1A700E4BB3F90030002B08DB590903F01F03012202FA03F30A4A42F82130F9
:40250000054A136843F00043136008BDFCCB020868CE0208BCEE081000006640B124081080EA081000E100E008B5074B1B7833B900F0FCF800F04EF90122034B1A7000F0E6
:402540003DF800F0CFFB08BDFDCB020810B5FFF7EBFF044610B900F099FB044614B900F0E5FA044600F092FA0028FBD100F03CF900F07EF9204610BD70B50E4D002634461A
:4025800014E0630904330C4A52F8233004F01F02D34013F0010F07D0284600F047F806462946204600F090F820350134012CE8D9304670BD30EF0810A0CE020870B5002337
:4025C0000AE0124A191D02EB8100002444604FF0FF3042F821000133002BF2D00C4C02230FE06668A27E094B2B4400211976012A05D1206918B1228BF17909F077FC203448
:402600002B465D1E002BECD170BD00BFA0CE020830EF081030B40B884A889C1A0025CD800079844200DDCC8030BC70472DE9F0418468038B456890F81A8000270BE0424685
:402640002146284600F02AF9074621462846FFF7E1FF0A3433465E1E002BF0D13846BDE8F08100BFF0B50C8B8D684F680A69012324E010EA030403D17E88B979314402E021
:402680007988BE79891BEE88B14201D3002100E01946A14202D01678013E1670A14201D014783CB920EA0300084309B9F97900E0012111705B000A350132744604F1FF3E9C
:4026C000002CD6D1F0BD00BF38B504468A7E154B03441D7E012A04D12846FFF7C3FF054604E04FF438711048FFF718F80D4B23441D76620904F01F04012303FA04F445B990
:402700000432084B03EB8202536823EA0404546038BD0432034B03EB820253681C43546038BD00BFA0CE0208FCEE0810F8B51D4E54220021304609F0D9FB4EF26253338099
:402740004FF41063738041F66A03B3800823738301233377144C04F144050FCDC6F81E00C6F82210C6F82620C6F82A3007CDC6F82E00C6F83210C6F83620204604340223F1
:402780000CE0A268238B04E010F8013B53720A320B46591E002BF7D120342B465D1E002BEFD1F8BDA0CE02082CEF081001280DD800F01F02012303FA02F24009031D04481D
:4027C00000EB83035B6802EA0300704700207047A0CE02080023024AD380024A13607047A0CE020808CC0208704700BFC9B2062902D083180021197130F8121000EB420370
:402800005980024400231372704700BF70B506460D46012305E0224629463046FFF7E6FF23465C1E002BF6D170BD00BF08B5064B03EB4013986801EB81014A00997E104433
:40284000FFF7E4FF08BD00BF30EF081038B50546064B03EB40131B8B04E021462846FFF7E5FF23465C1E002BF7D138BD30EF081010B5022303E02046FFF7E8FF23465C1ECC
:40288000002BF8D110BD00BF00FA03F3C2F5807001FB00F102FB0310000A70472DE9F04106460D461746012342E035F8140005EB44035988884207D3431A2A194FF0000ED0
:4028C00082F808E0012201E00B1A002292B996F805E073450ED92B191B7A327A934205D3224639462846FFF781FF20E02A19013313721CE096F804E0734504D996F805E05F
:40290000734514D89AB9FBB2062B10D005EB040898F804E0082301224EEA0121FFF7B4FFC0F30F2205EB44035A8088F8040023465C1E002BB9D10020BDE8F08110B5064BC4
:4029400003EB4010846801EB81014B00827EE1184068FFF7A3FF10BD30EF081070B50646084B03EB40131B8B002505E021463046FFF7E4FF054323465C1E002BF6D1284641
:4029800070BD00BF30EF081038B50025022304E02046FFF7E3FF054323465C1E002BF7D1284638BD30B49F280ED940F2FE3399420AD9244CA1FB04454B1B05EB53035B0A01
:4029C000C3EB832399422FD09F280DD9B1F5FF7F0AD91D4CA1FB04454B1B05EB53031B0AC3EB4323994221D09F280CD97E290AD9164CA1FB04454B1B05EB53039B09C3EB7B
:402A0000C313994214D09F2814D93E2914D9104CA1FB04454B1B05EB53035B09C3EB831399420BD000200AE0042008E0032006E0022004E0002002E0002000E0012030BC7A
:402A4000704700BF051040002140800011080402054110044A1E032A01D8102300E0002379B183B1642202FB03F3B3FBF0F3002001E001305B00092BFBD90A2B04D9013845
:402A800002E0002000E00020C0B27047024BD86800F08000704700BFA0CE0208034B0340034AD0681843D060704700BF80000100A0CE0208034B0340034AD06820EA0300CD
:402AC000D060704780000100A0CE020810B50F4BDB6813F4803F0ED101280ED8430904330A4A52F8233000F01F02D34013F0010F05D1012404E0112402E0012400E0002416
:402B00000CB900F033FD204610BD00BFA0CE020808B5054BDB6813F4803F03D100F0F4FB002008BD112008BDA0CE0208114BDB6813F0800F19D110B500244FF0FF3311E0C4
:402B40002046FFF7C3FF034658B91CB901220A4B1A7002E00022084B1A70FFF7D9FF034606E00134012CEBD902E0112318467047184610BDA0CE02080CCC020830B583B03A
:402B80000025074C08E02179002300930E222068FEF7CAF908340135032DF4D903B030BD8CEF081038B51B4A53780133DBB253705078FFF78BFF044650B9164B5B78DBB256
:402BC000012B02D10022134B1A70FFF7A1FF1EE0104B5B78DBB2012B10D10F4D2B8901332B818020FFF766FFEB6823F07F43EB60EB6843EA0464EC60002408E0064BDA683F
:402C000022F07F42DA60DA6842EA0062DA60002CC9D138BD0CCC0208A0CE020810B50146124BB3F90030002B0DDB5A0903F01F03012404FA03F320320D4840F82230BFF39C
:402C40004F8FBFF36F8F094C2046FEF709FDB4F90030002B08DB590903F01F03012202FA03F3034A42F8213010BD00BF78EA081000E100E010B5012801D8002400E001240A
:402C800014B9282100F040FA204610BD38B50024254604E02046FFF7EDFF05430134012CF8D9284638BD00BFF8B5002415E00C4B03EB44135D682E88204600F099FC074647
:402CC0003146FFF76FFE064601463846FFF7C2FE0001C0B2304328730134012CE7D9F8BD30EF081008B5FFF7DFFFFFF747FF00F05DF9002008BD00BF38B51F4D2A68936906
:402D00001E4CE31ADB0951691B01CA5822F4F852CA50022363602B6893F87D20135923F0F00343F0600313512A689369E31ADB0951691B01CA5822F4F812CA50042363603C
:402D40002B6893F87D20135923F4706343F4C06313510120FEF7D6FC2B6893F87D20135923F0F00313512B6893F87D20135923F47063135138BD00BF04CE02088003324011
:402D800042890388901E10FB03F080B2704700BF08B52A4BB3F90030002B0DDB5A0903F01F03012101FA03F32032254941F82230BFF34F8FBFF36F8F224B4FF483721A6013
:402DC0001B68214BD3F8D020D3F8D4309BB213FA82F31E4A128892B2934204D91B4A13889BB2538002E09BB2184A5380184B1B689847184BDB6813F0800F0FD1164A124B75
:402E00001A604FF4407203F5C6731A60134A03F51D731A601F22A3F598731A60074BB3F90030002B08DB590903F01F03012202FA03F3034A42F8213008BD00BF78EA08101D
:402E400000E100E0F00036400000364018CC0208AC420208A0CE020820100C80800E43013F4B1A683F4B1B7813445A7A3E4B13433E4A136000233E4A53803E493E4A11609D
:402E8000012102F5C0721160112102F5807211604FF08071043211603C3213600622374B1A60374A28331A6041F2101204331A60344AC43B1A6040F2033203F5A8731A60A7
:402EC0004FF4FA6300E0013B2F4A126812F0010F01D0002BF7D12C4B1B6813F0010F03D04FF44272284B1A60284B1A7F284BB3FBF2F3284A934204D9274A934203D83023DF
:402F000002E0202300E0402343F0004343F44123194A136040F20132204B1A60002320490B6001F580710B6004310B603C310B6038390B601B482831086042F2102004319E
:402F40000860C4390B601F21174B1960A3F5F0734FF4837119601B680B4B1A60704700BFF4CE0208ACEF0810800E43010004364018CC020820100C80000036408802364007
:402F800001010100AA00050040033640A0CE020880F0FA02001BB70000366E018C0136408001364001030300D002364010B5FFF7A3FE48490B6893F87D00474BC25822F0DC
:402FC000F002C2500A6892F87D10CA5822F47062CA504FF4837203F57F3303F5B8731A60002404331C60022204331A6088331C6004331C6041F2415204331A604FF440729F
:4030000004331A60354A03F51D731A60344AA3F504731A60334A10331A6004331C607C331C6004331C6004331C6008331C60FEF7E0FB2D4A136823F480531360FEF7DDFB36
:4030400023222A4B1A604FF0807204331A60FEF7D0FB274A136823F0805323F4801343F080531360FEF7C9FB224A234B1A6042F2102204331A600C331C601F2210331A60A8
:403080000F2230331A60042210331A6004331C600C331C604FF4427220331A60174AA3F550731A60164B1B7F013BFF2B0BD8094A12689068B2F87410425822F47F421B02F2
:4030C0009BB213434350FFF759FD0E48FFF7A6FD10BD00BF04CE020880033240800E4301AA000500A700000C94023640A0023640A802364001030300B002364020100C809F
:40310000A0CE0208912D08102DE9F84381460E46294C04EB4014D4F80880284BC3F800806068FFF72DFE264B18801B889BB203FB06F3244EA6FB03367609E37E257F05FB72
:4031400003F5002109E01D4A1368002018801368402058720A3313600131A942F3D32024402700E01C464846FFF7B0FCFFF7D0FC154BDB6813F0800FFAD1104BC3F8008006
:4031800000210FE00D4B1B681A88964203D25A7A22EA07025A725A7A22435A720A33074A13600131A942EDD3C4F347032746002CD8D1BDE8F88300BF30EF0810F4CE020818
:4031C00018CC02081F85EB51A0CE0208F8B50546FEF70FFB06462F682C79072C04D94FF471712048FEF79AFAA4001F4B1B6893F87D00C2590F23A34022EA0301062202FAE7
:4032000004F30B43C3512C682D79072D04D94FF422711448FEF782FA134B1A689369E31ADB0952691B01D118032D0BD8D158ED001F20A84021EA00000A2101FA05F5054307
:40324000D5500BE0043D4B68ED001F22AA4023EA02020A2303FA05F515434D603046FEF7CCFAF8BDB0EF081004CE0208F8B50546FEF7BFFA06462F682C79072C04D94FF4FE
:4032800071711F48FEF74AFAA4001E4B1B6893F87D10CB590F2202FA04F423EA0404CC512C682D79072D04D94FF422711448FEF735FA144B1A689369E31ADB0952691B0133
:4032C000D118032D0BD8D158ED001F20A84021EA0000042101FA05F50543D5500BE0043D4B68ED001F22AA4023EA0202042303FA05F515434D603046FEF77FFAF8BD00BF80
:40330000B0EF081004CE020810B50022104B1A70104B1B689968104A11601A7F0F4CA280D87EE0801B68A36003EBC000E060FFF74DFFA068FFF79AFF094A0A4B1A608020A9
:40334000FFF7ACFB1720FEF7DDF9FFF789FD10BD14CC020810CC0208F4CE020818CC020879340810AC42020870B50546FEF741FA06462C682D79072D04D94FF422711148B8
:40338000FEF7CCF9104B1A689369E31ADB0952691B01D118032D08D8D158ED001F2000FA05F521EA0505D55008E0043D4B68ED001F2202FA05F523EA05054D603046FEF717
:4033C0001CFA70BDB0EF081004CE0208F8B50646FEF70FFA074634683579072D04D94FF422712348FEF79AF9224B1A689369E31ADB0952691B01D118032D08D8D158ED00DD
:403400001F2000FA05F521EA0505D55008E0043D4B68ED001F2202FA05F523EA05054D6035683479072C04D94FF471711048FEF775F9A4000F4B1B6893F87D0042590F23CB
:40344000A34022EA0301062202FA04F30B43435135683479072C04D940F281310448FEF75DF90123A3406B603846FEF7C6F9F8BDB0EF081004CE020810B52C4B19682C4B07
:4034800018782C4C23889AB263889BB2D31A21F81030E068FFF768FF274A13780133DBB21370A388013B9BB2A3805BB1E0680830E060FFF78BFE1D4A13680A331360FFF700
:4034C000CFFC10BD1B4AD388013B9BB2D380D3B114469068FFF77AFFA0680830A060FFF7C5FE164B1A68137FA3801368D07E03EBC000E060FFF76AFE0C4A13680A3313602C
:40350000FFF7AEFC10BD0B4B9868FFF75FFF0C4B1B7813B1FFF746FB10BD0A4A1389013313818020FFF7C6FA10BD00BFF4CE0208ACEF081018CC020814CC020810CC0208EB
:403540000CCC0208A0CE0208074B1B8A53B110B5054CE068FFF708FFA068FFF737FF0023238210BD704700BF18CC020838B50446C2B2174B1A70FFF7E7FF164800EB44105E
:40358000154B186045686C892A88144B1A602846FFF7F6FB124B18802B7B013CC4F30B0444EA034444F040640E4B1C600E4B1B7F013BFF2B0BD80D4A12689068B2F87410BE
:4035C000425822F47F421B029BB21343435038BD0DCC020830EF081010CC02081403364018CC020800023640A0CE020804CE0208024B03EB401043685889704730EF0810C6
:4036000038B504461D4B1A68916892F8703003F0030343F08043C1F800340369FF2B0AD89168B2F874200A44D16821F47F411B029BB20B43D360114B1A68906892F8731091
:40364000032303FA01F592F8703092F8721003FA01F1294303F003030B4343F00043C0F800349368D3F80034054D00212846FEF737FEA1682846FEF733FD38BD04CE020885
:4036800000001D4108B5074B5B6813F4802F04D001210448FEF76CFE08BD00210148FEF767FE08BD00001D4108B5084B1B7963B907490848FDF7D4FF044B5B792BB9012286
:4036C000024B5A710448FFF79BFF08BD2CCC02080937081070EA08102CF0081008B5084B1B7913F0010F06D1FFF7DEFF044A137943F0010313710348FEF72AFE08BD00BF2F
:403700002CCC020800001D4110B5094BD3F81042072C04D940F231610648FDF7FFFF044BC3F81042D3F81022D3F8103210BD00BF00001D41F0EF0810064B5A68596B01328E
:403740005A60C2008A18596A51600021117058627047C046FCCE02080F2330B542680E4CD90009190D6C2100AA4202D2013BF7D211E00F2B0FD82468A21A0A608268C0687F
:40378000002A00D05060002801D0026003E00833DB00CB185A6030BDFCCE0208F8B5284C0600E368A26B013B0818D3180D00984206D80368002B03D14368F618FFF7CCFF3E
:4037C000A36B9D420BD92B1F1F68EF1B3B68002B05D17B683800F6183D00FFF7BDFF0F23DA00A218126C964202D2013BF8D225E00F2B23D80833DA00A21850680022A919C6
:4038000004392A606E60A8602D610E6029000831904200D04160EA602200DB00E318A860596023682932F31823601278002A05D1E268D31AA268934200D9A3603000F8BD72
:40384000FCCE0208F0B5234B87B09C6BDB680490013BE318039323686568002B30D1039B6719BB422CD93B680293002B28D0194EDB00726B9B5C012B22D17B6820000193B4
:40388000F36A0593FFF768FF3B68726BDB00D3185C60019A3900200008F00DFB029B059A934202D1736B5B1B7363019B2800E118FFF774FF049B002B01D0984206D2019DA1
:4038C000039B6419A342C6D8012000E0002007B0F0BDC046FCCE0208002806D0034BDA6B0260002A00D05060D8637047FCCE0208034BC0005B6B1818406808307047C046C7
:40390000FCCE0208064A10B5D3690133D361526BC300D3181A7801321A70FFF7E9FF10BDFCCE0208036810B5083B094C1B68626BDB00D3181A78012A04D9E169002901D005
:403940000139E161013A1A7000230360180010BDFCCE02080322024B914318605960704734CC020810B5041E0BD0064B5A6BC300D3185B6819005868FFF710FF2000FFF752
:40398000DBFE10BDFCCE0208F7B5224DEB6A002B07D1214B99685868083107F08DFE841C03E02B691C1DDB08E418E00000F000F90126071E2CD06A6BC300D3185E68EB6A54
:4039C000083601932B69696BDA00144B30001B68984729696E630B00CA000432EF62B218601E834203D2013313600832F9E7DB00F31800265E60074B5A685962511A09193A
:403A000059601C61019BB34202D01800FFF7AAFF3000FEBDFCCE020834CC0208E442020870B5184C230028331A78002A29D101321A70154B0F32DA609A68002A02D15A6827
:403A400092089A605A2210252262002228009040D100611801320864102AF7D15868196803000125143BCB180E3A22616363A163E0605D6065626560FFF790FEFFF784FFC1
:403A8000256370BDFCCE020834CC0208F0B5040085B0FFF7C5FF0323294E03349C43376C201DB84200D30700F26B1400002C06D0231F196823688F4232D01C00F6E7F2688D
:403AC000B36B944663440193043B02931B680393039A019B9D1A2B68002B06D02000FFF7B1FE029B1D68019B5D1B2B68002B23D16B689F4220DC28001C1DFFF72DFEF368E8
:403B0000E41BDB1BF36073692C19DB1973616B68D81B02D02900FFF741FE231F1F600BE0002B01D0616859606168002900D00B60A24201D12368F363200005B0F0BDC046E8
:403B4000FCCE020810B5FFF76BFF00230C4A1900BC315058002802D0836800200CE0083B19008031F3D109E05A68824200D910009B68002B02D09B68002BF5D10C3810BD06
:403B8000FCCE020810B5FFF7DDFF8023074CDB03984205D9642107F0A1FD236A584304E0236A6421584307F087FD10BDFCCE0208F0B585B00400FFF733FF3C4D2E6CB44200
:403BC00003D3032303349C4326002B680C360196B34241D32B6B6A689A420FD96B686F6A013B6B60FB0003936B6BFA009B185A686A6201221A70002F0AD12DE0013B2B6309
:403C0000FFF7C2FE2B6B01332B630028E6D023E00F23DA00AA18126C964201D2013BF8D21A00DB004433EB180F2A0DD81968002907D08C68002C04D061688E420ED9A1680D
:403C4000F5E701320833EFE73000FFF7FBFD0028DED03800FFF770FD002723E0636802939E1B2B6C0C339E4201D2029B01932000FFF772FD6B6B039A9B185C60019B019AFA
:403C800063600023A360019B2760E1180B1F24611A601300029A934204DA1300019A981AFFF77CFD380005B0F0BDC046FCCE0208002310B5984202D0FFF77AFF0300180013
:403CC00010BD000037B50500FFF7F2FF041E0AD0FFF718FE054B01901B682A000021984701A8FFF71FFE20003EBDC046E8420208514BF0B51B688FB0DA69D469A589A842DD
:403D000008DBE189814205D32168451B09910121494215E0A168002900D184E00D88A84200DA80E04E8886427DD3451B4968A8B266688000081809960021455E0221415E6A
:403D40000891691C6FD022215E5E2420195E0691127E0A92A27C0A9951430C91227C0B922A229B5E1800079301F0B4FE324F0D903A680699D369926B300005920C9A554305
:403D8000099A551904950125A27C02950392DA7E01929B7E0B9A00930A9B02F007F8089B01331BD00220079B184301F093FE3B680899DA699B6B300005930C9B4B43099988
:403DC000CB180493A37C02950393D37E06990193937E0B9A00930A9B01F0E8FF164D2B68DB695A7E1B7E9A4217D9079B022B14D00420584001F06EFE2B68069AD8690B9958
:403E0000437E057E9B18827E51438A19C17E069869430918300001F0B9FE6B4634229B18187801F057FE044B617C1A68538CCB1853840FB0F0BDC046B0420208044B1B68BB
:403E4000DB69DB69002901D01A7C0A60587C7047B042020802230B80704710B5C3699A89914203DBDA8901208A4210D29B68181E0DD01A880020914209D35C888C4206D3C9
:403E8000891A5B688900C85AC04380B2C00B10BD002807D003888B4202D843888B4201D28068F5E770470000F0B5334F8BB03B6804002A215A5EDB690100D8690792FFF7EC
:403EC000E7FF002855D00388E41A4368E4001E190798B47801F0FEFD39680990CD6932782B7E08932423C85E84462223C85E896B089B059171680394049101210291E97E3B
:403F00000191A97E0091614601F050FF3B68DB695C7E1A7E089294421FD9079A022A1CD0DD7E00F082F8079000F079F800F050F93A682423D15E2223D05E2300D2696B4349
:403F4000D47E32785B186243089C12186543691801F01CFE079800F03BF9099801F0BAFD054B71781B68DA69927E4A43598C52185A840BB0F0BDC046B04202080C4B70B570
:403F80001B680400DE690D000100F069FFF780FF00280CD002884368A41AE4001C196078B37E5843002D02D0227853432B6070BDB042020801230B80704710B5C069FFF776
:403FC00067FF431E9841C0B210BDFF2230B5040014400A40A21A92B213B2002B01DA524213B25B431D00FF23020A1A4014000A0A1340E21A92B213B2002B01DA524213B2F4
:40400000000C5B43090C411A89B208B25B19002801DA494208B280B24043C01830BD10B502F02CF902F032F810BD10B502F02EF902F02CF810BD0000044B00229B5E0360E8
:40404000034B00229B5E0B607047C046E4CF0208D4CF020870B500282CD0002926D0002A25D013880D881C1C2EB21BB2B34200DD2C1C048053884D881C1C2EB21BB2B34281
:4040800000DD2C1C448093888D881C1C2EB21BB2B34200DA2C1C8480D388C9881A1C0CB21BB2A34200DA0A1CC28003E01100082207F0F6FE70BD00280DD0038889B2CB186F
:4040C0000380838892B2C91843888180D3184380C388D218C28070470E4B10B51B681C1E03D098470400601E844103F0C7FA002800D00124084B1B68002B03D098470028E5
:4041000000D00124054B1B68002B00D09847200010BDC046E0CF020808D0020800D0020810B50024FFF7D8FF002801D00124F9E7200010BD024B1B68588499840020704734
:40414000B0420208024B1B681A7E187610007047B042020830B503000222845E06200A5E0020944213DC02228C5E06255A5F94420DDC00229C5E04254A5F944207DC0022AF
:404180008A5E0421595ED00FCB179142584130BD10B5034B7022196807F082FE10BDC046B042020810B5034B01007022186807F077FE10BDB042020810B502F071F902F047
:4041C000D7F903F09BFA10BD10B501F0A3FF10BD10B501F0A7FF10BD10B501F07BFC10BD034B021E1B68D86900D0DA617047C046B0420208024B1B689A7E9876100070479F
:40420000B0420208084B10B51880084B0A001980074B08491B685B7C9B005B58D9680C6A01001800A04710BDE4CF0208D4CF0208B04202080CD00208034B1B682C215A5EEB
:40424000988510007047C046B0420208034B1B682A215A5E588510007047C046B04202080E4B10B5186801F055FF0D4B186801F059FF0120FFF766FF0020FFF7DDFF00204C
:40428000FFF7E4FF0020FFF7A7FF064B1868FFF7A7FF0020FFF7AEFF10BDC046B8CC0208B8420208BC42020870B50024094D0A4E10C53368210028007022984733680422EA
:4042C000210006489847064B1D60064B1C70064B1C6070BD44CC0208E84202080CD00208B0420208F4CF0208D0CF0208014BD8607047C046B0420208F0B50700160085B0F1
:404300000C000420019301F0E5FB114B00901A68D36CDD199E19176D019B3C19FF1802AB18001D809E805C80DF8003F03DF8002804D1009801F0CEFB05B0F0BD3B00320001
:404340002100280001F022FC02F07EFFEFE7C046B0420208002110B50800FFF7EBFE034A034813000100FFF7C7FF10BDFF3F000001C0FFFF024BDA6FD86742607047C0466B
:4043800044CC0208084B10B51A68002A0AD101321A60FCF7C9FAFCF703FC0448044B0360FFF7E8FF10BDC04644CC0208C4CC0208A942081070B5FFF7E5FF2E22314B1A7035
:4043C000FCF7FAFA304C314D2100314B0C3123672B681A1DDA630432A2619B631B645B7C2C4A9B009858C3681B6B98472A4B6366EB6823622B680833A36101232377E37753
:4044000003F00AFB2300032268331A70234BE064606F6363A36301F07DFEA86801F082FE1F4A204B1A6001F0D7FD050001F0D6FF060001F0D9FF002E01D0002808D101F03F
:40444000B7FF060001F0B9FF0100300001F0C0FF00210800FFF7D6FE03F0AAF9A36F002B0AD0A36F002B07D01B68002B00D09847A36F5B68A367F4E701220B4B28001A7000
:4044800070BDC046C5CF020844CC0208B0420208A46E09100CD002089C6E0910785634FFB86E091004D00208ECCF02080300002083420ADC054A9B009858002805D0C3682E
:4044C0001B68002B01D00068F7E770470CD0020810B5FFF701FA10BDF8B506000D0017001C1E01DD00201BE01C20FFF7CFFA0028F8D0002D01D005610BE00A4BA200D35871
:40450000002B06D01A68002A01D01300FAE71B690361002384618782C660036043608360F8BDC0460CD0020883690C499A0010B554580368A04204D15350002B01D0002231
:404540005A604268002A00D013600368002B00D05A6000230360436010BDC0460CD0020830B5002801D101203BE08269002AFADC1C4B19788A4201DB012119701A49920022
:4045800053580D00002B02D15050180029E05968002901D00B00FAE7C1680968DC6824688C4203DD1B68002BF8D1DCE78C420AD1848A012C07D11C68002C04D02300E468DC
:4045C0002468A142F7DD5968002902D00860416000E0A85058600022984200D01A000260002030BDBDCF02080CD0020870B51C00FFF772FF051E0AD0FFF7B2FFEB681B6830
:40460000002B04D1034B16341B68A400E550280070BDC046B0420208F0B5040087B0002800D17BE003F090FF3D4D02902B6822229B5E039303F072FF2A6883B20093938C1A
:4046400000995B1A93842378002B5AD03549200003F0E6FF01000600200004F00BF8304B1A680323918D19400300012905D00023022902D1C30F1B185B10518C04ADCB1AF1
:404680009BB219B25184298081B2019101395B18AB802423D35E6A4617896B80013BFB182A0020003100EB8004F012F81C4D04AB5B882A6820009384310000F091F8241837
:4046C00023780A2B01D00D2B12D103212B689A8D0A40013A012A02D86A46928900E01A8C5A8422780A2A09D19A8CBF189F8405E004AA1088019A2B68101858842378002B7C
:404700000AD10321064B009A1B68988C10189A8D98848A439A8501E0013494E707B0F0BDB0420208FF7F000010B5034B1B6859849A84FFF771FF10BDB0420208044B10B54E
:404740001A68002A00D1186000F068F810BDC046D4CC02080A4B70B55A681D681C00002095420CD0074A2868131D54326968954201D02B000833236003F0ACF9012070BDE8
:40478000C0420208D4CC020870B50500FCF7E2F82D18FCF7DFF82C1A002C09DDFFF7C0FC044B1868A04200DD2000FCF7D9F8F0E770BDC046C8420208F8B5084F06683B688E
:4047C00004001B68300098473B6805005B6830009847301820602800F8BDC04604D0020870B506000D000024002D08D0054B30001B68013D5B68984736182418F4E7200057
:4048000070BDC04604D002080078704701207047012070470170012070470000034B10B51B68002B00D0984710BDC04634CD02081F230849C20A1A40034010B540058C5C03
:40484000CA5C0549830ECB5C1204A2181B02D01810BDC046A872091068720910FF230849020C1A4010B58C5C02001A408A5C000A04490340CB5CD202A2185B01D01810BD14
:4048800068700910686F091000487047FFFF0000F7B5104C2468002C01D0A04719E0FF260D4F01900198013A10C8250C35407D5D0190AC46250009483540240A7D5D344081
:4048C000045DED02654464012D190D80C918002AE8D1F7BD3CCD020868700910686F0910F8B5134C6468002C01D0A0471EE0541E5C4300190F4C104F1419A40009191F2447
:40490000A44665460488043925407E5DE50A7D5D360475193F2664093440084E013A365DC01A3602AD194D60002AEAD1F8BDC0463CCD0208FFFFFF3FA87209106872091044
:40494000100070474368981A01387047080070470368581A0138704710B58468F8342468A04710BD10B58368F4331B68984710BDF7B516000D0087680400FFF7F3FF019039
:40498000019ABB6A2900534020003200FFF7E4FFF7BD13B584680092F0342468A04713BD13B584680093F03424680B00A04713BD37B5069D84680095F0342468A04737BD9B
:4049C00030B587B00F9D846805950E9DEC3404950D9D03950C9D02950B9D01950A9D00952468A04707B030BD7047000073B5079D80680C4C002D0DD02568002D10D1050085
:404A0000069EA83500962E68B0472B682360064B2B6005E02368002B02D0A8300360256073BDC04644CD0208E949081010B5026CDC3003689069984710BD10B5026CE03086
:404A400003689069984710BDF0B585681E002B000F0085B003920A9AA83300921B68039A1C0028003300A0470A9B0399286C5C1AF21B0134E435013262432B680B99806945
:404A8000984705B0F0BDF0B585681E002B000F0085B003920A9AA83300921B68039A1C0028003300A0470A9B0399286C5C1AF21B0134E835013262432B680B9980699847F1
:404AC00005B0F0BD0300481E00B5172828D806F0DFFD1427272727272727270E101219290C272727272727231E250F481BE00F4819E00F4817E00F4815E01B689B68FC331A
:404B0000986810E01B689B68FC3318680BE01B689B68FC33586806E0074804E0074802E0002000E0064800BD334F08101F4F08100B4F0810B54E0810194E0810ED49081021
:404B4000474F081000B58368481E0D2825D806F09FFD090B0D0F2424241127070713191E01201EE018681CE058681AE0986818E0D86816E0986B14E0181E12D0586B012318
:404B800018400EE0181E0CD0586B800703E0181E07D0586B4007C00F03E00120404200E0002000BD83680020012900D1586C7047002382680B804B801368013B8B805368E6
:404BC000013BCB8070470000F0B50E4B91B06A461900E0C9E0C2E0C9E0C260C960C208A90A006C462033E0CBE0C2E0CBE0C260CB60C2436BFC309B001A595B58C2600361C6
:404C000011B0F0BDE06E091073B504000E00150000210822684607F069F96A460321A06900960195FCF706F873BD08007047080070470800704710007047100070471000F9
:404C400070474368981A013870470368581A013870470368581A013870474368981A013870474368981A013870470368581A01387047F0B585B084680393E38C0D00160041
:404C80009B0735D52700FC37FB6820009847290002903B69320020009847029B2169050001228B4200DB00220299A0690123814200DC002361691A4301238D4200DB002341
:404CC0001343DB0702D4E3699D420BDD62682368013A00922200A83216680022013B11002000B0472300AC331B682A00029902E02300AC331B68200098472300A4331B6844
:404D000003992000984705B0F0BDF0B5846816002200E38C85B0AC320D0003929B074FD52700FC373200FB68200098473B6902902900320020009847230098331B680500CF
:404D4000002B03D00022012120009847029B216901228B4200DB00220299A0690123814200DC002361691A4301238D4200DB00231343DB0702D4E3699D420BDD62682368C6
:404D8000013A00922200A83216680022013B11002000B047039B2A001B680299200098472300A0331B6820009847230098331B680500002B0FD001220021200098470AE01C
:404DC000039B32001B68200098472300A0331B68200098470500280005B0F0BD70B585680400002D13D1BE204000FEF74FFEBE22074B52001B68A060290098470222A36895
:404E0000DA84013A1A62034A1C64FC335A6170BDE8420208C94B081070B506000D001400FFF7DCFFB368002B3AD0262D02D0272D18D035E09A6B102A0AD0122A30D11A00C6
:404E40001900E0321460174ABC310A60C03307E01A001900DC321460134AB8310A60B4331A601DE09A6B102A02D0122A0AD017E019001A00CC31C832002C0FD0E4331C6058
:404E80000A4B08E019001A00D031D432002C05D0E8331C60064B0B60136001E00C60146070BDC0463B4A08102D4A0810494A0810874A081070B50500FFF790FFFA204000F7
:404EC000AC68FEF7E3FDA36BA06646424641D81D2368C0105843FEF7D9FDE066002800D1012600220121A869FBF7A4FE2300FC3306435B69200098472300B03320001B689A
:404F00009847F317981BC00F70BD70B504000E001500FFF763FFA3681E605D6070BD70B504000E001500FFF759FFA3689E60DD6070BD10B50400FFF751FF00220621A06954
:404F4000FBF778FE10BD10B50400FFF747FF00220521A069FBF76EFE10BD70B50C000500FFF73CFF2268AB68DA6262681A63A2685A63520707D51A6859685A6019609A6880
:404F8000D968DA609960A28921699A84002903D0CA43D2170A401A6270BDF7B504001E0017000191FFF71AFFA5686822280015300199FF3006F074FF2000B8472000B047D3
:404FC00023699B689847A862F7BD02000B0A713210B513700300723319708A335B6A02211000984710BD70B50E00040015000021836E002D13D030880131020A1A7058703B
:405000009A1CFA2907D12300FC33FA315B6AA06E98470021A26E0236013D1300E9E7002905D02300FC3349005B6AA06E984770BD030010B5B8331B68984710BD10B589B2AC
:40504000FFF7C3FF10BD0000F0B587B002920122454F04933B68059003911B7C8668134244D0029B0C9A93427BDC3300CC331C68F56E002C01D1039C08E0029B0195009360
:40508000029A049B03990598A0470EE0049B9C420ADC3300F43321001B68029A05989847013428800235F1E7F56E049B039A9F1A01373B00002B06D02A88B16A013B4A40E3
:4050C0002A800235F6E7029B029A00933300A8331C680399049B3000A0473A00F16E3000FFF781FF029B01330293BAE7049B039A02999C1A0C9A631C541A01345C433300D5
:405100000092A8331B680A001D000399049B3000A8473B68B76EDB6B1A68130ADBB20293D3B203930123002C1BD02500F92C00D9F9256900002B07D13300FC335B6A781C71
:405140009847641B0023EEE74A1C7B1CBA189A42F2D06846007A18706846007B58700233F5E707B0F0BDC046B0420208F0B591B00493836806900D93179B0591013B0C9294
:40518000012B04D90422179B043B934306D1CB4B1B681A7C03231340022B10D0059B1A9A169899180C9A049B1218013A00920D9ACB18A8321468013B0C9A0D98A0470C9B89
:4051C00003930C9A039B9B1A169A9A4200DC69E2179B581E0F2800D95CE206F063FA1000C1005B024D015B025B025B02EA015B025B025B025B025B025B025B0256021A9A8F
:40520000069B944603229C681B9B5B680F93059B63440793A94B1B681B7C1340022B1ED0934272D0012B70D065461B9B049E1B68199F07936B46998B80232B413A7813420C
:4052400001D06B46998F20000135FFF7BEFE082D01D100250137013E002EEBD11AE20025E36E079F0993079B0B931A9B0893199B0A932B00802608990A9A0E411278164015
:405280000E960DD0002B02D1E36E0B9709936A46099B928F01351A8002330993012315E0012B12D1039A7B1E00922200A83212680B9916002000039AB0472A00E16E20005D
:4052C000FFF791FE0E9D2B0000E00E9B089A013701320892082A04D10A9A01320A9200220892079A049952189742C3D10B00079A013B9B18002D00D1CCE122000399A832FA
:40530000009116680A000B99B9E1199B049F1A9D0893049B079A9E1880222A41089BF61B1B781A4211D02300F43331001B68039A069898472200F8321268A36A944643409E
:405340003100039A06986646B0470135082D03D10025089B01330893013F002FD9D199E1069B9D681B9B002B00D193E10322199B1B780993514B1B681B7C134012D0022BC9
:4053800000D087E11A9A00269446059B079263440893EB6E089F0B93089B0E93199B0F9333001EE01A9C049E199F03231A1B5200DB18991ABA330B41099928000B40D34059
:4053C0001B9A9B009958013489B2FFF7FEFD042C03D100247B7801370993013E002EE4D158E103220799C024521A06215200891A0C4109990C40D4400A9410D0002B02D1C5
:40540000EB6E0E970B930A9B0B9A9C001B9B0136E3581380130002330B93012315E0012B12D1039A7B1E00922A00A83212680E9914002800039AA0473200E96E2800FFF7CD
:40544000D2FD0A9E330000E00A9B079A013701320792042A07D10F9A527809920F9A01320F9200220792089A049952189742B8D10B00089A013B8CE0069B9D681B9B002B25
:4054800000D107E10322199B1B7809930B4B1B681B7C134014D0022B00D0FBE01A9A00269446059B079263440893EB6E089F0B93089B0E93199B0F93330020E0B042020816
:4054C0001A9C049E199F01231A1B92000333991AEC330B41099928000B40D3401B9A9B009958013489B2FFF770FD022C03D100247B7801370993013E002EE4D1CAE0012245
:405500000799F024521A04219200891A0C4109990C40D4400A9410D0002B02D1EB6E0E970B930A9B0B9A9C001B9B0136E3581380130002330B93012315E0012B12D1039A3E
:405540007B1E00922A00A83212680E9914002800039AA0473200E96E2800FFF744FD0A9E330000E00A9B079A013701320792022A07D10F9A527809920F9A01320F9200227D
:405580000792049A089952189742B8D10A00049B013B9B18002E7DD02A000399A8320091146828000A000E99A0473200E96E28006EE0069B9C681B9B002B6BD003223A4B5D
:4055C0001B681B7C134009D0022B63D10025E36E0893059B09931F002B0026E0199D049B199A5B1BD318002B54DD2B781B9A9B009958200089B2FFF7E8FC0135EFE7002B52
:4056000002D1E36E09970893079B089A9E001B9B0135F35813801300023308930123049A05990137521897421DD0199A0599521AD25D0792002AE2D1012B12D1039A7B1E0D
:4056400000922200A8321268099916002000039AB0472A00E16E2000FFF7C5FC079D2B00DDE7079BDBE7049B013B5B18002D11D022000399A832009116680A0009992000A0
:40568000B0472A00E16E200002E0049A19990D98FFF7A9FC189A199B944663441993039B01338DE511B0F0BDB042020810B50400FFF794FBA4680E4A2300EC331A600D4AE2
:4056C0004C3B1A650C4A08215A650C4A20009A650B4A1A600B4A5A602200CC3212685A660C3B1B6898471023A363074B636410BD6D510810495008100B4D0810734C081023
:40570000315008103D500810F0720910F7B5040006000F0025008C3633682A2100929847E36A9035F91809122B68200089B29847E26ABBB299180193FF23200019402B6876
:405740009847E36A2000FF183F122B68B9B29847E26A019B944663441900FF23200019402B689847336820002B219847226B009B2000991809122B6889B298476B461F880A
:40578000236B2000F918FF2319402B689847226B009B94466344191220002B6889B29847236B2000F918FF2319402B68984733682C2120009847F7BDF7B5040007000E0090
:4057C00025008C3701932A213B6800929847E36A9035F11809122B68200089B29847E36A20009919FF262B6831409847019BE26A2000991809122B6889B29847E26A019B3B
:40580000944663441900200031402B6898473B6820002B219847009B226B2000991809122B6889B29847226B009B944663441900200031402B689847089B226B2000991856
:4058400009122B6889B29847236B089A2000991831402B6898473B682C2120009847F7BD13B5040008220B49684606F019FB23008C3320001B6836219847E023A18C626B1F
:4058800099436B469B5C20001943230090331B68984713BD546F091037B505000400FC35AB692E209847236A6846D91C6B6B9847226A6A44507813788008DB084001DB0292
:4058C00003439078C00818433EBD30B505000400FC3585B0AB6B2E209847236A6846991C6B6D9847236A5B006B445A881B881006C10E5011FC22D2001040DB080843DB0251
:40590000184380B205B030BD70B505000C00FC35080AAB699847AB69E0B2984770BD030010B5FC339B6B0800984710BD10B5C9B2FC30C3690800984710BD030010B5FC3326
:40594000DB6B0800984710BD082908D010290DD10300074A8C331A609030064B05E00300054A8C331A60054B903003607047C0461F5908103B590810095908102D5908107B
:40598000F0B585B00A9D5C1A8668601CAC1A0134444330003700A83000950568FC373000A8472E20BB6902AD9847316A28007B6B98470B9E7B6B0321280098476A782B78AA
:4059C0009208DB08DB0252011A43AB78013CDB08134333800236002CECD105B0F0BDF0B587B00C9D5C1A8668601CAC1A0134444330003700A83000950568FC373000A84754
:405A00002E20BB6B02AD9847316A28007B6D98470D9E02217B6D280098471F216B88013CDA100A40FC215B11C9000B4013432A88D208D202134333800236002CE9D107B048
:405A4000F0BD000010B50400FFF7C8F9A36810491A00AC3211600F49043A11600E49180091600E49B430116100215161C16119000B4AC8311468526804600A4C84610A607D
:405A80000321DA8C8A43DA84074A94331A6010BD0D570810B95708106158081099580810CC420208815908104959081070B5084B1B681A7C11004140490705D59C6BD96BF8
:405AC00025680E6826600D601874100070BDC046B042020810B5024B1B689B68984710BDD442020870B5144B05001B680A000A20195E91421EDC0E20195E8A421ADC08206E
:405B0000195EA94216DC0C20195E8D4212DC5C7C187C0A49A400C00705D508592900C368DB69984706E00859DB6BC1681B688C692900A04770BDC046B04202080CD0020882
:405B400070B5104B0D001C680A21635EAB4217DC0E21635E9D4213DC0823E15E814200DA01000C20235E934200DD1300994207DC627C054892001058C26894682A00A047F6
:405B800070BDC046B04202080CD0020873B51E00114B0D001C680823E15E814200DA01000C20235E934200DD13008B4213DB0A20225EAA4200DA2A000E20255EB54200DD49
:405BC0003500AA4207DC607C044C80000059C46800952469A04773BDB04202080CD00208F0B517006E4A91B01268069308900C001C9B002A10D01B9B05931A9B0493199BDA
:405C00000393189B0293179B0193169B00931568069B3A00A847C1E016991798014301294FD1604A069D10680A21425E111B002909DD6D1A002D00DCB0E0199E71431A9E1A
:405C400071181A9100E02200069964180E26815F013C641A002C03DD2D1B002D00DC9DE008990C26845FC9190139091B002900DD7F1A08990826845FC91AA1420CDA641AB9
:405C80001B199C46DE101A9B3F1B9E191A9607266346B44309193340002F7FDD407C424C800000591B9EC46804931A9B05960393199B00950293189B019364683B00A047E5
:405CC0006CE00823160018990A925B1A0E930A9B069A934262DA179BE3180C93013B0D93304B1B680A215A5E0D998A424CDC0E229B5E9C4248DC00251A9B09950B93089BD7
:405D00000793099BBB423FDA002D04D10B9B08351E7801330B9333000E9A1899134132008A40D6B2DAB26D1A002A05D102211D4A1268127C0A421ED11A4A1268D26B1168EA
:405D40000F911B99002905D0FF210B401B999B005B5801E0FF210B401360169B21005A1E079B0798D2180D9BFFF710FF0D4B0F9A1B68DB6B1A60169A099B94460133099341
:405D8000079B63440793BCE7199A0A9B944601330A931A9B0C9C63441A9398E711B0F0BDC8CF0208B04202080CD00208F0B593B008937E4B06001B680C0006921A9D1C9F4E
:405DC000002B0ED01D9A049705921B9A02950392199A0192189A00921D68069A089BA847E1E0189A19990A43012A6DD1704B19680A228B5E089A9C461B1B002B07DDD21AAE
:405E0000002A00DCCFE01B984343FF1800E0A446089BE4180E200B5E013CE41A002C03DD121B002A00DCBEE0069B0C24085FF318013B1B1A002B02DD0698C31A0693082348
:405E4000C85E0023864228DA069C831BE41A0694082D1FD009DC022D0FD0042D15D0012D1BD1D8103F1807200AE0182D11D0202D0FD0102D11D15B000CE098103F180320C6
:405E80001C0084433619034007E058103F180120F6E79B00FF18060000230698002800DC81E0497C4348890008581D9CC16804931B9B009202930594039701954C68069B3E
:405EC00062463100A0476EE00822521B109207930C930C9B089A934265DA199BE3180E93013B0F93324B1B680A215A5E0F998A4252DC0E229B5E9C424EDC00230D9709967B
:405F00000A930B930B9B069A934245DA0A9B002B07D10D9B1B7807930D9B01330D9308230A93079B109A1341079AAA40D2B207920A9A521B0A92DAB2002A05D102211C4A21
:405F40001268127C0A421ED1194A1268D26B116811911D99002905D0FF210B401D999B005B5801E0FF210B401360189B21005A1E099B0998D2180F9BFFF708FE0C4B119AA4
:405F80001B68DB6B1A60189A0B9B944601330B93099B63440993B5E70C9B0E9C01330C931B9BFF1895E713B0F0BDC046C8CF0208B04202080CD0020810B5054B054A1968CC
:405FC0004B7C08319B009858C3681B6B984710BDB04202080CD0020807B5FFF7EDFF00F0B7F800283AD1FEF761FA0190002807D100F006F91A4A1B4B12689A420ED12CE08C
:40600000C3680C215B6A01A8984703000120002B24D0019898470028EAD01FE00020FEF745FA0190002818D0002002F09FFB0420FFF750FD00210C4B08001A00FFF7A6FDE4
:406040000020FFF747FD019B0E21DB6801A85B6A9847031E01D00198984700200EBDC046B8CC0208785634FFFF3F000010B5054B054A1B685B7C9B009B581B691B68984711
:4060800010BDC046B04202080CD0020810B5054B054A1B685B7C9B009B581B695B68984710BDC046B04202080CD00208044B1B681A7C520701D59B6B00E0DB6B1860704712
:4060C000B0420208054B10B51B681A6B824204D01863FFF7CBFFFFF7E9FF10BDB0420208044B1B681A7C520701D5DB6B00E09B6B18607047B0420208054B10B51B685A6BC2
:40610000824204D05863FFF7B1FFFFF7E9FF10BDB042020810B5024B1B685B68984710BDD442020810B5024B1B681B68984710BDD442020810B5044C2068FDF7CDFB00233B
:40614000024A2360136010BD18D0020860CD020870B500240A4D2B68A3420FD1094B18688000FDF793FC2860A04206D00648074B04300360FEF7FEF800E00124200070BD64
:4061800018D00208D842020860CD020835610810F7B5051E28D08768381E25D0134C2068002821D080232A685B0000209A421BDC0F4B00921B689A4200DD00930026009BE4
:4061C0009E420ADA2268B300D218F8580192FFF74DFF019B01361860F1E7064B1B68002B01D0280098472068FEBDC04618D00208D842020860CD020810B5FFF7C9FF10BDAF
:40620000F7B500F045F900240090009B9C422EDA2000FEF74BF9002827D0154E200033685A7C5C74019200F06AF8082804DD6A46336812795A7418E00E4AA300D2580E4B03
:4062400012699A42F3D0200000F05EF800250700BD42ECDAFF202840FFF718FFE9B20200200000F03FF90135F2E70134CDE7F7BDB04202080CD00208D8720910024B1B6873
:406280009B6B18687047C046B0420208024B1B68DB6B18687047C046B042020810B50C00FEF704F9002803D0C2682100926A904710BD002310B5984202DCFFF7EFFF030020
:4062C000180010BD10B501000020FFF7E7FFC343DB17184010BD10B50121FFF7EAFF10BD10B50221FFF7E5FF10BD10B50321FFF7E0FF10BD10B50421FFF7DBFF10BD10B5E1
:406300000821FFF7D6FF10BD10B50921FFF7D1FF10BD000010B5034B1B68587CFFF7DBFF10BDC046B042020810B5034B1B68587CFFF7D6FF10BDC046B042020810B5034BFA
:406340001B68587CFFF7E0FF10BDC046B0420208044B800010B5C0580821C3689B6A984710BDC0460CD0020810B5FEF79FF8002803D0C2680221D26A904710BD10B5034BF9
:406380001B68587CFFF7F0FF10BDC046B0420208024B8000C3581B69586870470CD00208024B8000C3581B69186870470CD0020810B50120FFF786FF10BD10B50220FFF775
:4063C00081FF10BD10B50320FFF77CFF10BD0000014B03C37047C0466CCD0208014B18687047C0466CCD0208014B58687047C0466CCD02080023984233D0020001339A432D
:406400002FD003220100013391432AD00100053399431300002924D002000C339A430B3B002A1ED002001B339A431A3B002A18D00200FA339A43F73B002A12D0420A08330F
:40644000002A0ED0020B0CD0C20B0AD0020C08D0820C0233002A04D0000E0633002800D008331800704710B5FFF7C4FF030001280DD0821E0820062A09D9073A0018072AA9
:4064800005D900200F22113B9A424041400110BD10B50020FEF70AF8431E984110BD00000E4B10B51C001A680D49527C92005058002809D0C368002B02D01B68042B01D04D
:4064C0000068F5E7FEF730F800222368DA651A0008325A61FFF770FD10BDC046B04202080CD0020837B50C001500FDF7DFFF0190002801D101200BE0C36810215B6A01A8E8
:406500009847031EF6D001982A002100984700203EBD37B50C001500FDF7C8FF0190002801D101200BE0C3680B215B6A01A89847031EF6D001982A002100984700203EBDEF
:4065400037B50C001500FDF7B1FF0190002801D101200BE0C3680A215B6A01A89847031EF6D001982A002100984700203EBD000010B5074C2368186BFFF778FDFFF796FD51
:406580002368586BFFF772FDFFF7AAFD10BDC046B042020870B50024134B144D1C60144B14481C60144B04701C60144B44601C60134B84601C60134B21001C60124B1822E3
:4065C0001C600C302B689847104B21001C60104B08221C600F482B6898472B68082221000D48984770BDC04648D00208E842020830D0020874CD020850D0020858D0020863
:4066000020D0020840D002084CD002082CD0020824D0020864D002085CD0020810B50400FDF766F9826A034BD20300D4024B2000984710BDA99A0810BD740810F0B5040043
:406640000D00160085B0002C50D02000FDF75AF90223876A010001901F4241D002AC002E04D03200200001F0F7FE02E0230005C905C321002800FDF76DFD002830D0012280
:40668000019B17421FD1002E09D05A887188131C08B212B2824200DA0B1C1BB201E002229B5E0222A95E06202A5E8B4205DD0221635E9A4214DB013B03E00621635E9A42BC
:4066C0000EDDEB800CE0DF69002F09D0380022002900FFF7B3FF3800FDF70AF9076AF3E7019B01A81C6AFDF71DF9ACE705B0F0BDF0B504000F00002687B00192002C39D0BC
:406700002000FDF7FFF80223856A010003901D422AD0019B04AC002B04D01A00200001F09BFE02E0230005C905C321003800FDF711FD002818D001231D4204D1A38801268E
:4067400001333B8010E0039BDD69002D0CD0220039002800FFF7CCFF002800D001262800FDF7C6F8056AF0E7039B03A81C6AFDF7D9F8C3E7300007B0F0BDF0B504000E0041
:40678000170085B0002C34D02000FDF7BBF80223856A010001901D4225D002AC002F04D03A00200001F058FE02E0230005C905C321003000FDF7CEFC002814D001231D4211
:4067C00003D12388013BB3800DE0019BDD69002D09D0280022003100FFF7CFFF2800FDF787F8056AF3E7019B01A81C6AFDF79AF8C8E705B0F0BD0000F0B5214C85B023687F
:406800000500986CFDF77EF802902800FDF77AF80100039002980830FDF79CFC061E25D02368029A0398DF6C1B6D083203990830019301F011FE02A8FDF774F8039A236851
:406840000020115E0F4ED96435600221525E03A81A65FDF767F82800FFF7E0FE0023019A336023680126DF641A6505E002A8FDF759F803A8FDF756F8300005B0F0BDC046F0
:40688000B042020820D00208F0B585B00500FDF739F8836A03909B0704D403A8FDF742F805B0F0BDC469002CF7D02000FDF72AF80322836A0290134093423BD103990831A6
:4068C000FDF748FC002835D0039B03A808229F5E0A229E5E0C215A5E00920E229B5E0193FDF720F802A8FDF71DF82000FFF784FF00280ED02000FCF7FBFF02902000FFF754
:40690000C3FF2000FCF7F4FF02902800FCF7F0FF03902800FCF7F6FF03902000FCF7F2FF6A46039B128802909A816A4692881F815E81DA81029B02A81C6AFCF7F3FFB2E735
:4069400073B50400FCF7DEFF1A4B826A01901340012B05D001A8FCF7E5FF2000FFF75EFE154B1B68002B24D02000FFF78DFF2000FCF7BEFF03268569046A002D19D0002CB8
:4069800011D02000FCF7B4FF836A3340032B02D12000FFF731FF2000FFF776FF2000FCF7A7FF046AEBE72800FCF7A2FF046A8569E3E773BD0108000058D00208F0B5174CB0
:4069C00085B023680700986CFCF79CFF0823C65E0A23C55E0C22835E039000930E22835E083001932368083306CB06C003A8FCF799FF3868FFF7A4FF2368986CFCF782FFBE
:406A00006B461B88039083816B469B8806814581C38103A8FCF786FF05B0F0BDB0420208F7B506000D0002272800FCF76BFF846A010001903C4004D101A8FCF773FF230016
:406A400013E0300001F0EAFC019B01A89C69002C07D1FCF767FF064B1868401B4342434103E0FCF75FFF2500DEE71800FEBDC04624D00208F0B5040085B00D1E4DD0FCF732
:406A800041FF00230190036285612800FCF73AFFC6690290002E05D1C46101A8FCF742FF02A838E0019B30009D6A0827FCF72AFF3D4003900ED1836A3B420BD0019B01A823
:406AC0001E62029BDC61FCF72DFF02A8FCF72AFF03A820E002A8FCF725FF03A8FCF722FF3000FCF705FF08270390039B1E6A002E01D11C620EE03000FCF7FAFE002D07D191
:406B0000836A3B4204D0039B1C62019B1E6201E00390EAE701A8FCF705FF05B0F0BD70B50400FCF7E5FE05008069002815D0FCF7DFFEC36906009C4205D12000FCF7D8FEFF
:406B4000036AF36109E0002B07D01800FCF7D0FE036A9C42F7D12B6A036270BD030010B5080002215A5E0021595EFDF7A4FA10BD114B30B51D6885B0696C0400002916D091
:406B8000082202A805F08CF90C4B1868002800D1A86CFCF7B7FE02A90190FFF7DFFF01A8FCF7C0FE02A8210001F038FC02A803F0A1FD05B030BDC046B042020820D00208C8
:406BC0001FB5104B1B681A0054321278002A02D00D48143012E0986CFCF794FE02AC2300019006C806C301A8FCF79CFE074B1968002902D02000FFF713FF2000FFF7B8FFB7
:406C00001FBDC046B042020874CD020820D00208064B10B504001868002806D0A04203D0FCF766FE4069F7E7012010BD38D0020813B5041E22D0FCF765FE836A01909B07B4
:406C400019D5406A002808D00D4B1B689C4204D001F054FF0022019B5A62200000F0E2FE0400002C07D02000FFF7E2FF2000FCF73FFE046AF5E701A8FCF754FE13BDC046E5
:406C800054D0020803000022815E04201A5E0020914207DC02215A5E0621595ED00FCB179142584170470000F0B585B004000E001500FCF71DFE876A0190BB0730D530000B
:406CC000FFF7E0FF00282BD0164B3B40012B27D02000FCF717FE02AC020001903100200001F0BAFB2000FFF7CDFF002815D0019B0D4918009A6A08300A4204D022000100C5
:406D0000FDF7A8F909E042CC42C02A439A62074A138801331380FDF781FD01A8FCF702FE05B0F0BD010800002040000034D0020810B52022FFF7B8FF10BD7FB504000E00FB
:406D40001500002828D0FCF7DDFD836A020001909B0703D401A8FCF7E5FD1DE0310002A801F07AFB0028F5D001A8FCF7DBFD20002A0002A9FFF798FF200000F053FE040014
:406D8000002C09D020002A0002A9FFF7D6FF2000FCF7AEFD046AF3E77FBD0000F0B587B007000D0001921C00002932D00800FCF7A9FD866A02000390B30727D5390004A841
:406DC00001F04AFB002821D0134B1E40012E07D1039923000A6A04A88969FFF7DFFF04E0220004A92800FFF75FFF039BDD69002D0CD0019B9D4209D02800220004A9FFF77F
:406E00009CFF2800FCF774FD056AF0E703A8FCF789FD07B0F0BDC0460108000070B5050008000C001600FCF763FD836ADB0301D4202301E08023DB01320028002100FFF7F3
:406E4000ADFF70BD10B52023FFF7A8FF10BD13B50400FCF757FD81690190002908D0026AFFF7F0FF2000FFF75AFE0022019B9A6101A8FCF757FD13BD1FB50091694601905B
:406E800000F008FD05B000BD00234B800B80028883889B1A8B80C38842889B1ACB807047F0B5050087B00F00002835D0FCF72AFD866A0190B3072CD504AC230006C806C3F4
:406EC000F30302D52800FFF7B3FE002F0CD00822390002A804F0E4FF02A90198FFF73EFE02A9200001F09AFA29002000FFF798FD00280ED0094B1E40012E06D1019B2000F3
:406F00001A6A9969FFF79EFF03E021002800FFF70FFF01A8FCF706FD07B0F0BD0108000010B50021FFF7BCFF10BD000070B50B4C051E23689E6C01D1094A15689D64FFF7CB
:406F40003BF82800FCF7D4FC23680021425EDA640221425E30001A6570BDC046B042020838D00208F0B585B00193494B05001F680A9B0E000092002B27D1464B1B88002B61
:406F800028D0454B1B685A1C012A23D90A930A98FCF7B8FC03900022835E0222815E009AED187618002A04D10424025FD21A531C0093019B002B04D10622835E5B1A0133B9
:406FC000019303A8FCF7AEFC04E00A9B0133DED100230A930D982C30FCF774FE041E53D02C4A0B9B1F43138801331380FCF78AFC009B02900580ED18019B4680F6180C9BB7
:40700000826A0361254B013D3B401343013E83628580C68002A8FCF785FC214B1868002809D0FCF765FC05002000FCF761FC6B6943616C6100E01C600A992000FFF71AFDCD
:40704000BB0602D52000FFF771FFFB0703D5154A1368013313607B0602D5200000F0FAFC02252F420CD02000FCF74CFC836A02902B43836202A8FCF755FC2000FFF750FF45
:4070800001212000FFF7F8FE200005B0F0BDC04640D002081CD0020824D002089F3F3F0038D0020858D002081FB5089C0394079C0294069C019400240094FFF753FF04B078
:4070C00010BD000037B5041E65D0FFF7A1FD002861D00B212000FFF7CFFE200000F05EFE2000FCF70FFC0190406A002801D001F005FD0022284B9A60284B19688C4200D1B1
:407100001A60274B1A68944201D100221A600022244B1B68002B05D059688C4200D15A601B68F7E70721200000F079FD019DE869FFF7C8FFEB69002BF9D12000FFF787FED0
:40714000194B186800280AD0FCF7D2FB050040698442F7D12000FCF7CBFB43696B61019B9A6AD30703D511490B68013B0B60930603D50F4A1388013B138001A8FCF7D2FB79
:407180000C4A20001388013B1380FCF7EBFB0A4B1868FFF7CBFE37BD74CD020830D0020850D0020848D0020838D0020858D0020834D002081CD0020824D00208F7B51D4D91
:4071C0006B68002B1BD080261B4B36021C68002C14D02000FCF796FB836A01904769334207D001A8FCF79EFB2000FFF76BFF3C00EDE701A83C00FCF795FBE8E76C600F4B8E
:407200001B68002B00D098470D4B1B68002B0AD10C4B1B6854331878002809D0FDF79AFA431E984104E0984703000120002BEFD0FEBDC04674CD020838D0020828D002086B
